S01D00007A776176655F736F635F69727269676174696F6E5F322E733337DE
S3150800600008100020E57B0008EFE90208EFE902081E
S315080060108B160308EFE90208EFE90208EFE9020820
S31508006020EFE90208EFE90208EFE90208017F030831
S31508006030EFE9020824BC0308917E030873A9030844
S31508006040BD7F0008EFE90208EFE90208EFE9020858
S31508006050EFE90208EFE90208EFE90208EFE90208AA
S31508006060EFE90208EFE90208EFE902086D75000892
S31508006070ABE40208EFE90208EFE90208EFE90208D3
S31508006080EFE90208EFE9020879030108EFE90208D7
S31508006090EFE90208EFE90208C98D0008EFE90208EE
S315080060A0EFE90208EFE90208D5890008B589000872
S315080060B0EFE90208EFE902083DB90108EDC3010856
S315080060C0D1470308CD470308ADBB0108E7470308D6
S315080060D0D5470308BDC30108D947030851C40108B9
S315080060E08DC40108EFE90208EFE90208EFE90208A2
S315080060F0EFE902080D100308EFE90208EFE90208C4
S31508006100EFE90208EFE90208EFE90208EFE90208F9
S31508006110EFE90208EFE9020871CE0208EFE9020882
S31508006120EFE90208EFE90208EFE90208EFE90208D9
S31508006130EFE90208EFE90208EFE90208EFE90208C9
S31508006140EFE90208EFE90208EFE9020815C40008BA
S31508006150EFE90208EFE90208EFE90208B1A201082F
S31508006160EFE90208EFE90208C1470308C747030831
S31508006170F0B5114A114C124E00F00105E3695F07AC
S3150800618013D40DB9334213D103EA00078F4207D15E
S315080061900B4A1A40002A0CBF00206FF00100F0BD20
S315080061A0013AEBD16FF00200F9E74FF0FF30F6E75E
S315080061B06FF00100F3E700BF8096980000000350D7
S315080061C0020001000B4B70B5D96911F480310DD16D
S315080061D001244FF48072084E084DF46020462C6462
S315080061E01A61FFF7C5FF3464EC6070BD6FF00100FB
S315080061F0FBE700BF000003500010035000200350C7
S315080062004FF4803238B50E4B0E4C9A66E56941F666
S31508006210713315400122E3630B4B0021DA60022338
S31508006220606121202361FFF7A3FF10B92120FFF742
S315080062309FFF0122054BDA600DB10023E36338BDE9
S315080062400090005000000350001003500020035037
S3150800625070B5134C6061E3695B071ED40E4656F8A9
S31508006260043B8D18A361AE420BD1042300212120E3
S315080062702361FFF77DFF58B9BDE870402120FFF77D
S3150800628077BF08210846FFF773FF10B1042323617F
S3150800629070BD56F8043BA361E5E74FF0FF30F7E71A
S315080062A0000003502DE9F84315464FF48032184B89
S315080062B089469A6603F51C33DF690646174041F698
S315080062C07132DA63012203F58053DFF84C80DA6015
S315080062D055B9284601220F4BDA601FB10022A3F5F3
S315080062E00053DA63BDE8F88306F5005404EA0804A7
S315080062F0A41BAC4228BF2C46494622463046FFF727
S31508006300A7FF0028E6D12644A1442D1BE0E700BFDD
S31508006310009000500020035000E0FFFF000000003E
S31508006320000000000000000000000000000000005F
S3150800633000000000FF000100572803086C00010058
S315080063400100FF00FF000000000000000000000040
S31508006350000000000000000000000000000000002F
S315080063600000000002008500020000004720030824
S31508006370000000000000000000000000000000000F
S31508006380432003083F2003080200590003000000C9
S31508006390D9150108000000000000000000000000F8
S315080063A0000000005D1501080000000002008E00D4
S315080063B0030000005321030800000000000000004D
S315080063C000000000000000000000000000000000BF
S315080063D00300200002000000232403080000000038
S315080063E0000000000000000000000000000000009F
S315080063F00000000003006B0001000000F521010801
S31508006400E3240308F9240308ED2403080000000028
S31508006410892001088920010802005A0001000000AD
S3150800642000000000000000000000000039260308F4
S3150800643000000000000000000000000002007A00D2
S3150800644005000000412301080000000000000000CC
S3150800645000000000000000002D2301082D2301087C
S315080064600200870003000000892F010800000000D1
S3150800647000000000C326030800000000000000001A
S31508006480000000000200720002000000CF26030888
S3150800649000000000000000000000000000000000EE
S315080064A00000000000000000020073000100000068
S315080064B0C9310108000000000000000000000000CB
S315080064C000000000613101086D31010802006C000E
S315080064D001000000813401080000000000000000EF
S315080064E000000000000000003134010831340108C2
S315080064F0020086000300000089360108000000003B
S31508006500000000000000000000000000000000007D
S315080065100000000002005E00020000009728030841
S31508006520000000000000000000000000000000005D
S3150800653000000000000000002500000088AD0020D3
S31508006540FF0000000000000018000000912F02085C
S3150800655022000000E12C020801000000DD640308A7
S3150800656005000000192B020804000000E9310208A2
S315080065700B00000041370208250000007D2C0208A8
S31508006580240000001D2C020814000000F13D02083A
S315080065900C0000000539020816000000392D020813
S315080065A003000000A93E0208020000003B6403083D
S315080065B008000000813402082A000000992D02080C
S315080065C0290000001D2F020802000000336403089A
S315080065D001000000D764030803000000B52E020876
S30D080065E000000000E364030853
S315080065F0013800D0FCE770472DE9F04F93B0CDE99C
S315080066000A32DDE91C530E9353EC102BCDE9080131
S31508006610104619468DED060B1E9E27F09FF880B191
S31508006620DDE906014FF0FF32C54B27F0BFF840B948
S31508006630DDE906014FF0FF326FF4801327F098F872
S3150800664070B1DDE908019DED060B0E9B1E96CDE99E
S315080066501C53DDE90A3213B0BDE8F04F00F088B9E3
S315080066600022DDE90601002327F082F8002800F061
S315080066703381DDE906A303F1004BCBF30A5016F488
S315080066808063A0F2FF3008BF06250F9326F094FD1D
S315080066909BA3D3E9002326F0F9FD9BA3D3E90023A6
S315080066A026F03EFCCBF31304894644F07F5180461E
S315080066B00022A44B504641F4401126F02FFC94A327
S315080066C0D3E9002326F0E2FD02460B46404649463A
S315080066D026F026FC27F074F8044626F06DFD8EA3F6
S315080066E0D3E900238046894626F0D0FD0022964B42
S315080066F026F016FC27F064F889A3D3E90023074699
S315080067004946404626F0C2FD80463846894626F068
S3150800671053FD85A3D3E9002326F0B8FD02460B46B0
S315080067204046494626F0FAFB02460B46CDE90C23BD
S3150800673026F0ACFDDDE90C2380468946104619464D
S3150800674026F0EEFB0022CDE91001804B4046494673
S3150800675026F0C6FE00227E4B26F0E2FB02460B46DA
S315080067604046494626F0BCFE00227A4B26F0D8FB66
S3150800677002460B464046494626F0B2FEDDE90C23A2
S315080067808046894600204FF0804126F0C7FB024626
S315080067900B464046494626F0C3FB02460B46DDE952
S315080067A0100126F09DFE07F2FF3700226A4B26F0FD
S315080067B0B7FB00223B0526F069FD52465B4680463C
S315080067C0894626F0F3FF002840F08980CDE90C8938
S315080067D004F16303C72B34BF0427052731051BD5EE
S315080067E053A3D3E900235046594626F0D5FF00287F
S315080067F07FD051A3D3E900235046594626F0B8FF67
S31508006800002876D00027A542C6BF2C1B04F1FF3509
S3150800681000253C4646F480660E9B9F422CBF4FF0EF
S315080068200008A3EB070816F0020903D0002F18BFCB
S315080068304FF000083CB1DDE90C235046594626F0D6
S315080068404FFE82468B46DDE906010022002326F02C
S315080068508FFF10B10BF100439B46DDE9080126F4D2
S315080068600063CDE90183DDE90A324BEC10AB0095F4
S3150800687000F07EF802465FB3DDE9091316F0200F33
S3150800688000F10105089E0CBF65204520B047DDE9EB
S3150800689008010523002205930A23002CCDE90232BC
S315080068A007F1FF374FEAD473B8BF64422A4601930B
S315080068B004970A9B00942DF023FA0246B9F1000FBB
S315080068C006D00B9BC41A0B9B1A190E9BA34245D8DC
S315080068D0104613B0BDE8F08FDDE906ABCDE6002221
S315080068E0404649461A4B26F0FBFD013CCDE90C0112
S315080068F06EE7002D90D00F9B002B8DD0013D8BE7C6
S31508006900FB799F501344D33FB3C8608B288AC63F90
S3150800691061436F63A787D23F71A379094F930A40F2
S315080069201655B5BBB16B0240EF39FAFE422EE63F6B
S315080069302D431CEBE2361A3F0000000080842E41EE
S31508006940FFFFEF7F0000F83F0000E03F00002C400B
S3150800695000002440000018400000F03F2020DDE938
S315080069600913089DA8470134ADE700BF00000000E1
S315080069702DE9F04F5BEC10AB97B0CDE90501DDE9E9
S315080069802057CDE90723504652465B465946229E74
S3150800699026F0E4FE70B90323CDE902760193B04BE5
S315080069A00093DDE90501DDE907232DF0C9F817B0E5
S315080069B0BDE8F08F4FF0FF326FF48013504659460A
S315080069C026F0D6FE28B10423CDE902760193A54B1D
S315080069D0E6E74FF0FF3250465946A34B26F0E6FE4F
S315080069E068B1A24A06F00403002B08BF0322A04B95
S315080069F01CBF13460422CDE902760192D0E7504621
S31508006A0093A3D3E90023594626F0D0FE38B992A3BA
S31508006A10D3E900235046594626F0AAFE68B1DDE9B7
S31508006A200723DDE905014BEC10ABCDE9217620956E
S31508006A3017B0BDE8F04FFFF7DFBD00220023504630
S31508006A40594626F095FE002800F09A805B46524685
S31508006A500020002126F062FA012382468B4609931C
S31508006A6016F4806400F08E80092D40F28E80002492
S31508006A7030210EABA5F109020134202C03F8011BC5
S31508006A80A5EB040901D09442F6D15946504626F0A2
S31508006A9097FE784B054603EBC90393ED007B8DED16
S31508006AA00A7B26F089FB02460B465046594626F0D5
S31508006AB035FADDE90A2326F0E9FB02460B46CDE95D
S31508006AC00C2326F0A5FE804626F066FB02460B46FA
S31508006AD0DDE90C0126F022FA02460B46CDE90C2325
S31508006AE00022654B26F062FE002851D008F1010805
S31508006AF0404626F051FB02460B46DDE90A0126F020
S31508006B0041FE10B14FF000080135B9F1000F50D120
S31508006B10284626F051FB02460B465046594626F0B3
S31508006B20FDF90022544B8046894626F021FE30B1F5
S31508006B30002240464946504B26F038FE10B1E80779
S31508006B4000D501350A210EAB1A19202C0AD095FB5F
S31508006B50F1F001FB1055303502F8015B01340546AA
S31508006B600028F2D106F00302012A57D1002F55D08A
S31508006B70099A12B916F00C0F00D0013F302245E0F1
S31508006B8009906DE74FF006097FE7A94600247CE7E0
S31508006B900022DDE90C01384B26F0EAFD0028B4D1C5
S31508006BA0B8F1000F02D018F0010FAED008F10108B5
S31508006BB0ABE70A210EAB2344202C0ED0B8FBF1F02C
S31508006BC001FB1082B8F1090F02F1300209F1FF3911
S31508006BD004F1010403F8012B11D83021A1440EAAAF
S31508006BE0202CAFD0A14504F101030AD11C4609F1B6
S31508006BF058030DEB03092E2309F8203CA2E780462B
S31508006C00DAE7A1541C46EBE71A550134A74205D921
S31508006C10202CF9D1CDE902760194C1E6202CF9D0D1
S31508006C20099A3AB12D2104F158026A4402F8201C47
S31508006C300134EFE7710704D504F158022B216A44A1
S31508006C40F4E73207E6D504F1580220216A44EDE755
S31508006C500000000065CDCD410000000065CDCDC126
S31508006C60DDC20308E1C20308FFFFEF7FD4C20308B1
S31508006C70D9C20308E8C203080000E03F000000008C
S31508006C80F7B50446007830F04EFD18B1E3780BB13D
S31508006C9031F0BFF84E482DF006FE002024F058FCCF
S31508006CA04C4B002118604C4815F072FC4B4F84463B
S31508006CB0386000B9FEE74A4E0FCC35460FC50FCCF3
S31508006CC00FC5102294E80300464B85E8030083F8B5
S31508006CD01F23012183F82023604683F8212383F8A4
S31508006CE0222383F8232383F8242383F8252383F890
S31508006CF0262383F8282383F8272383F84A2383F84F
S31508006D004B2383F8472383F81E230EF035FB24F024
S31508006D1019FFB6F90A3000284AD0C82B01DDC82366
S31508006D2073817378304A022B28BF02232F491372C6
S31508006D3038684FF4807300222DF0EDFE25F0ECFB49
S31508006D400122386811462DF06DFE1FA3D3E90023F2
S31508006D50CDE9002338684FF0FF324FF0FF332DF0AE
S31508006D605FFE96F82000224C003818BF012025F057
S31508006D70E7FBB6F90820B6F906103379307825F01E
S31508006D808DFB1C4B5B68187824F0F4FE01223868EA
S31508006D90114630F06CFF00221546174924F0B6FD5F
S31508006DA0904209D832F076FD144B186003B0F0BD56
S31508006DB08C2BB6DD8C23B3E701F8015B24F8025B64
S31508006DC00132EBE7AFF30080088D0155220200007F
S31508006DD0690345EC1895002018B1002028B1002059
S31508006DE0387F002000E100E0C07E0020C07D002042
S31508006DF0AC9500202CB10020EDA8002014950020A9
S31508006E000348044B834202D0034B03B1184770472B
S31508006E1058B2002058B2002000000000064B07496F
S31508006E20C91A891048BF0131491003D0044B0BB168
S31508006E3001481847704700BF58B2002058B20020D2
S31508006E400000000010B5064C237843B9FFF7D8FFB9
S31508006E50044B13B10448AFF300800123237010BD1F
S31508006E60B695002000000000C42C040808B5054BA0
S31508006E701BB105490548AFF30080BDE80840FFF798
S31508006E80CDBF00BF0000000020190020C42C040854
S31508006E90A3F5803A704700BF174B002B08BF134B6A
S31508006EA09D46FFF7F5FF00218B460F461348144A07
S31508006EB0121A27F0BEF90E4B002B00D098470D4B3F
S31508006EC0002B00D098470020002104000D000D4833
S31508006ED0002802D00C48AFF3008000F013F9200018
S31508006EE0290027F093FA00F011F800BF0000080007
S31508006EF00000000000000000081000200810002014
S31508006F0060AB0020000000000000000008B5064B3A
S31508006F10044613B10021AFF30080044B1B6803B18C
S31508006F20984720462AF0D1F800000000701A002081
S31508006F30002310B504468360818119464366C281E1
S31508006F4008228361C0E90033C0E904335C3027F0C6
S31508006F5070F90D4B246263620C4BA3620C4BE3621F
S31508006F600C4B23630C4B9C4206D003F168029442F7
S31508006F7002D0D0339C4205D104F15800BDE8104038
S31508006F8027F05FB910BD00BFADE10208CFE10208E6
S31508006F9007E202082BE2020838190020024A0349D0
S31508006FA0034827F0E5B800BF2CAD00204FE30208E0
S31508006FB03CAD002041680C4B994210B5044601D0FF
S31508006FC027F0C5F9A168094B994202D0204627F057
S31508006FD0BEF9E168064B994204D02046BDE8104048
S31508006FE027F0B5B910BD00BF38190020A019002038
S31508006FF0081A002010B50B4B04210B4C0B4A2046EF
S315080070001A600022FFF794FF04F1680001220921A3
S31508007010FFF78EFF04F1D00002221221BDE81040CE
S31508007020FFF786BF701A0020381900209D6F0008E8
S31508007030014827F007B900BFB7950020014827F097
S3150800704002B900BFB795002010B50446FFF7F0FF58
S31508007050236A1BB1BDE81040FFF7F0BF044B23625B
S31508007060044B1B68002BF5D1FFF7C4FFF2E700BFFE
S31508007070B56F0008701A002038B50023054D044680
S3150800708008462B602AF01FF8431C02D12B6803B16F
S31508007090236038BD741A002038B50446064D0846E4
S315080070A0114600222A601A462AF015F8431C02D116
S315080070B02B6803B1236038BD741A002038B504461E
S315080070C0064D0846114600222A601A462AF005F897
S315080070D0431C02D12B6803B1236038BD741A002003
S315080070E038B50446064D0846114600222A601A4657
S315080070F02AF001F8431C02D12B6803B1236038BD7E
S31508007100741A002070B50D4D00260D4C641BA41092
S31508007110A64209D10B4D00260B4C34F0D1FA641B5C
S31508007120A410A64205D170BD55F8043B0136984710
S31508007130EEE755F8043B01369847F2E750B20020CF
S3150800714050B2002050B2002054B2002013B50120DE
S3150800715024F0DCF80CF090FBFE2304460DF1070042
S315080071608DF8073015F006FF9DF807002AF02EFF68
S3150800717068B19DF8073023720CF082FB02220346A1
S31508007180012105482FF0FFF8002002B010BD04F1D8
S3150800719008002DF0CAFDEFE79FE3020808B5103096
S315080071A02AF0E1FA0346054A10681BB1BDE8084013
S315080071B027F08CBDBDE8084027F09ABDB0BB030890
S315080071C010B5032000F030FB60B1094C094920686E
S315080071D029F05FFF27F083F927F082F9064920682E
S315080071E029F057FFBDE81040712009F0C5BE00BF61
S315080071F0241F0020E8B60308EDB6030838B50320B7
S3150800720000F012FB60B1154C1549206829F041FFC2
S3150800721027F065F927F064F91249206829F039FF43
S3150800722000F046F82BF0C4F90F4C104B002818BF95
S315080072301C46032000F0F8FA78B1084D084928687A
S3150800724029F027FF27F04BF927F04AF92246286844
S315080072500749BDE8384029F01CBF38BD241F002067
S31508007260E8B6030803B70308FFB603085CB80308C3
S315080072701FB7030810B5032000F0D6FA60B1094C11
S315080072800949206829F005FF27F029F927F028F988
S315080072900649206829F0FDFEBDE81040722009F075
S315080072A06BBE00BF241F0020E8B6030830B70308EA
S315080072B00048704788AD0020114B00B51868114B7F
S315080072C0114A1860114B8BB01360114A00210092C5
S315080072D0104A1268CDE901230F4B4FF4C862039395
S315080072E00E4B04930E4B05931923CDE9062332233F
S315080072F0CDE90813694607F013F80BB05DF804FBEF
S3150800730008AE0020A4270020A0270020FCAD0020FE
S3150800731047BB0308981D0020341D0020381D002097
S315080073200810002010B52A4C03F09EFE04F01AF847
S31508007330236F012023F0070343F00303236704F0B8
S315080073403BF8244B01219B6A3E20DB015EBF4FF4CC
S315080073508032214B9A62D4F8203123F0070343F098
S315080073600203C4F82031D4F8283123F0070343F088
S315080073700203C4F82831D4F8403123F0030343F05C
S315080073800203C4F84031D4F8603123F0030343F014
S315080073900203C4F8603103F0C1FBD4F84032002080
S315080073A023F0030343F00203C4F84032D4F8003252
S315080073B023F0070343F00203C4F80032D4F8083276
S315080073C023F0070343F00203C4F8083210BD00BFD8
S315080073D0008000500040005A0060005A4FF4803088
S315080073E02549264A4B6E10B55066486E4FF0004147
S315080073F04AF6CD345166224903F480334A6C0C644C
S3150800740002F001024C6BE407FCD401241D494C60D0
S31508007410A1F500510C6BE407FCD50AB11A4A0A64B7
S315080074200028A2BF4FF00041184A51661BB94FF415
S315080074308032164B5A6607F0B9FD00F005FB07F0D7
S315080074404BFC29F0D7FD07F097FC29F0DDFD07F086
S315080074505BFCFFF767FF08F035FA00F0E9FA00F081
S315080074606FFD31F0EDFC23F0ADFD02F0A9FFBDE89C
S31508007470104008F0C5BD00BF0080005000900050C5
S3150800748000400950006009503254FFFF00A0005028
S31508007490064B1B681A7A022A04D812B11B68044ADA
S315080074A013607047032AF9D0704700BF0CAE00205E
S315080074B0981D002030B5184D8FB006AC0FCD0FC4FF
S315080074C095E80F0084E80F000E2200210DF10A004E
S315080074D026F0AFFE4FF48012104B6946CDE9002323
S315080074E00B238DF808300C238DF809300C4B06AAAF
S315080074F003932023049301230A488DF814300A4B7A
S3150800750007F07CFE044600214FF4E13027F060FACC
S3150800751020460FB030BD00BF60BB03083C00015BCE
S31508007520B8950020D81E00209C1D002029B9074BBD
S31508007530186803684BB108F083B9022905D8034BCC
S31508007540186803680BB12AF023B8704720AE0020EC
S3150800755008B50449044808F02BFDBDE80840FFF7C4
S31508007560A9BF00BF24AE0020001F0020014829F053
S31508007570A9BD00BFD81E002008B5044827F024FB83
S31508007580BDE80840024827F01FBB00BF98BB0308A8
S3150800759080BB030808B5044827F095FBBDE80840FA
S315080075A0024827F090BB00BFC8BB0308B0BB03085E
S315080075B070B5104D286827F025F90446C0B90E4E57
S315080075C0306827F006FB012803D133F0C3F90B4BCB
S315080075D01860706827F0FDFA012803D133F0BAF96C
S315080075E0064B98600022064B28681A7027F01EF989
S315080075F0204670BD101F00202CAE0020141F00204E
S3150800760008B200200021164A00B511605160042214
S31508007610144B89B019705970134B01A81A711A7353
S3150800762010221960996026F004FE29238DF804308B
S315080076300E4B4FF4806202930D4B0E4903930223BF
S315080076408DF810300C4B01A8CDE9052308230793C4
S3150800765027F087F808B12BF08EF909B05DF804FB1E
S31508007660081F0020D8950020141F00207D760008EA
S31508007670AFE40208101F002005000400F0B5214EF3
S3150800768085B0306801AA02A927F01DF9044600282A
S3150800769035D14FF4C870029F9DF80C5031F048FA66
S315080076A0874228D340F2DC50029C31F041FA8442EA
S315080076B023D341F28830029C31F03AFA844234BF2F
S315080076C002200320104C04EBC505287121790429F2
S315080076D004D000202BF050F904232371217B0429C0
S315080076E004D001202BF048F904232373306827F0CF
S315080076F09DF805B0F0BD2046E4E70120E2E72BF04F
S315080077003AF9F6E7101F0020141F0020194BF7B5A9
S315080077101C7884B9184B1A68904203D05B68984263
S3150800772009D1012427F055FA0128144D05D133F063
S3150800773011F945F8340003B0F0BD33F00BF955F8EC
S3150800774034308DF80440C71A2820009731F0F0F934
S31508007750874204D805EBC4052B79052BEBD1084BDA
S3150800776008226946186827F073F80028E3D02BF03A
S3150800777002F9E0E708B200202CAE0020141F002012
S31508007780101F002038B5D0E9023253F82230074DD1
S315080077901C78012C28BF01242B5D33B933F0DAF8A5
S315080077A0034B43F8240001232B5538BDD8950020F8
S315080077B0081F00202DE9F041D0E9023253F82230A3
S315080077C0DFF860801C78012C28BF012418F80460B3
S315080077D0012E12D133F0BEF80027114B08F80470B9
S315080077E053F82450451B4FF4C87031F0A1F9A8424C
S315080077F005D9394620462BF0BFF8BDE8F08140F29E
S31508007800DC5031F095F9A84201D93146F2E741F248
S31508007810883031F08DF9A8428CBF02210321E9E7AF
S31508007820081F0020D89500200B4B02461B7883B111
S315080078300A4B1B78834234BF00200120084B1B7873
S3150800784033B1084B1B78134113F0010F08BF002012
S3150800785070470120F2E700BF0BB200200AB20020F1
S31508007860DA95002009B20020012208B5074B1A70E4
S315080078700022074B1A700422064B1A701F22064B69
S315080078801A7007F013FC054B186008BD0BB20020F0
S31508007890DA9500200AB2002009B20020241F002031
S315080078A073B5846905462CBB082029F0A8FEA86193
S315080078B060B10460446021464FF6FF70AE6933F04C
S315080078C041FD706028B9284626F067FE192002B0E7
S315080078D070BDAA6801962B7907490848CB5CC2F3A4
S315080078E04F02009321462B4633F0CCFD0128EAD1FE
S315080078F02046ECE71220EAE7E0BB0308ED7900082A
S31508007900014827F008B900BF281F0020037970B581
S315080079109B07054602D41D4B1C6844BB1C2029F056
S315080079206EFE044680B32B7C012603712B7995F8ED
S315080079302020C3F3400343750023027583608361E7
S31508007940036140F80C3B27F0E6F895F820300BB1B8
S31508007950012323756B69A26829469A4238BFA3603A
S3150800796004F10C0027F0DEF84EB9002070BD667DE4
S315080079701EB922792B7C9A42E7D02468CDE72146A6
S31508007980024827F0CFF8F0E71920EFE7281F002074
S315080079900D4B70B51C6804B970BDA3690BB124689A
S315080079A0F9E7E36820462361FFF77AFF06460028D1
S315080079B0F5D0E568002DF2D0EB6813B1314600200A
S315080079C098472D68F6E700BF281F0020064B024699
S315080079D0186800B97047C3680BB90068F9E793429D
S315080079E0F8D01B68F8E700BF281F002010B504462A
S315080079F026F094FE40B90D4B1A78A2B901221A70E6
S31508007A0026F091FE26F00BFD204626F025FE0028DE
S31508007A10FAD0204626F08CFE0028F5D08368002B85
S31508007A20F2D09847F0E726F07EFEEDE7DB950020DA
S31508007A3008B5044829F0E0FA26F0F4FCBDE8084049
S31508007A4000F008B85CC00308014829F0D5BA00BFA1
S31508007A505CC003082DE9F04F544E97B0354609AC83
S31508007A600FCD0FC42B6806F1140523600EAC0FCD9D
S31508007A700FC495E80F00DFF84C8184E80F004C48E6
S31508007A8029F0BAFA404629F0B7FA4FF48073494FFD
S31508007A90ADF83C30484B38460B9309A90EAB0D930D
S31508007AA003F042FF0421B6F834B00DEB01000122C1
S31508007AB0ADF804B000F098FDB6F836A00022012112
S31508007AC002A8ADF808A000F08FFDB6F8389001229C
S31508007AD0042103A8ADF80C9000F086FD758F0122ED
S31508007AE0042104A8354CADF8105000F07DFD344B48
S31508007AF04FF44870C4F8F8344FF00213C4F8F4345D
S31508007B00A3F58033C4F8FC341C23C4F8E43408F025
S31508007B104FFC08A8ADF8205000F0C4FD142008F06A
S31508007B2047FC08A8ADF8205000F092FD232008F085
S31508007B303FFC08A8ADF8205000F0B4FDB92138463E
S31508007B4027F0E4FE08A8ADF8205000F081FD0022D9
S31508007B5005A81146ADF814B000F046FD002206A8A7
S31508007B601146ADF818A000F03FFD0122002107A834
S31508007B70ADF81C9000F038FD0122002108A8ADF8E8
S31508007B80205000F031FD384603F02EFE0023404613
S31508007B90C4F8E434C4F8F834C4F8F434C4F8FC344B
S31508007BA029F02DFA17B0BDE8F08F00BFE8BB03082F
S31508007BB05CC0030800000A50E070720000C0035061
S31508007BC00200030060C003080348044A0449121A65
S31508007BD0921026F00DBF00BF7061000830630008E0
S31508007BE060AB002008B500F02FF8FFF7EDFF124B49
S31508007BF012498B4212D30020114B12498B4218D3DB
S31508007C00FFF74AF9186850F82240586840F82240A9
S31508007C10013298688242F5D30C33EAE70022F8E786
S31508007C201C6844F8220001325C68A242F8D3083383
S31508007C30E4E70022F8E700BFCC2C0408D82C040897
S31508007C40D82C0408D82C04084FF48041124B134A48
S31508007C5070B59A60D3F88820114D42F47002C3F8C3
S31508007C608820104A05F5005491664FF0FF322266C7
S31508007C700D4A62660222C3F8D020BFF34F8FBFF3C6
S31508007C806F8F4FF44036002007F0D8F90020E660E1
S31508007C9007F0B8F92E6170BD00ED00E0006000083D
S31508007CA000800044009000507FFF7F01054B18605C
S31508007CB0054B1B6F03F00703032B01D130F052B9B4
S31508007CC0704700BF40AE0020008000504FF00063B0
S31508007CD09B6A03F17842B2F5C04F03D21968064A87
S31508007CE0914203D00023037083607047012202701B
S31508007CF09A689B694260F7E707B0CD5E024B034A74
S31508007D001A6029F085B900BF0000002002020FF0B2
S31508007D1073B54F4B04461A781AB102221A7002B08C
S31508007D2070BDCDE900220028F9D001261E7032F078
S31508007D30D5FC484D484B186011F0D2F92B785BB941
S31508007D4002F03EFB40B945480823454A45490068C4
S31508007D5002F0D0F900B92E70434B5A6E62619B6EE1
S31508007D60424AA3614FF480439366414B5968E161E7
S31508007D7040499960196E2160596E6160D3F8701197
S31508007D80A160196CE160596C21613B49086C186463
S31508007D90496C5964012151661B6E9C0441D5374ACA
S31508007DA0D368D807FCD4364B1A68531C3ED04FF418
S31508007DB080139340334A13664FF400730426314CFC
S31508007DC02666236626F077FE01300DD026F073FE70
S31508007DD040F20113984207D04FF4005323664FF43C
S31508007DE080432366C4F870610823264C68462366D8
S31508007DF04FF4805323664FF0006323664FF4000365
S31508007E0001A9636626F001FE009B2366019B636653
S31508007E102B78002B83D0124B1A6822665B68636640
S31508007E207DE7194AD368D907FCD4BCE7174B1B78FA
S31508007E30002BC1D14FF400720C4B5A6603F5A623EA
S31508007E405B68002BB8D14FF480120E4B1A66B3E765
S31508007E50DD950020DE9500204C1F002068AE00202E
S31508007E60501F00200071080000800050009000504C
S31508007E700080004455CEAC0000C000540000044009
S31508007E8044AE00200090004400000450DC95002019
S31508007E9070B5224D04462E78012E02D001232B7090
S31508007EA070BD0028FCD026F006FE01300BD026F067
S31508007EB002FE40F20113984205D0194B194A5E6634
S31508007EC0D368DE07FCD42268174B1A6662685A66BE
S31508007ED0A268C3F87021E2681A6422695A64E269E2
S31508007EE0D00744BF00229A60104B1A68013207D1A6
S31508007EF00F4A127822B90F494968C90748BF1A605C
S31508007F0062690D4B5A66A2699A6611F0F1F80B4B35
S31508007F10186832F0DEFB0023C1E700BFDD950020BC
S31508007F2000900040000004400080004444AE002059
S31508007F30DC95002000C00550008000504C1F002032
S31508007F40F8B54FF00066B36A03F17842B2F5C04F50
S31508007F5026D21A68144B9A4222D1144D2C7814F062
S31508007F60FD0402D000242046F8BD4FF4803710489F
S31508007F70FFF7CEFE204607F061F80E4B2046DF607D
S31508007F8007F040F80C4B1F61B36ADB699847044653
S31508007F900748FFF77DFF002CE5D101232B70E1E7A9
S31508007FA04FF48174DFE700BF07B0CD5EDC95002093
S31508007FB02C1F002000A000440090004413B5204B5D
S31508007FC01B7803B9FEE700231E4CCDE900336A4649
S31508007FD008231D49206802F08DF8F8B91B4AD2F823
S31508007FE04031D2F840211F2B4FF0010311D9203A16
S31508007FF09340019A1A43019208236A461249206857
S3150800800002F034F8124B134A1A6029F001F802B04C
S3150800801010BD9340009A1A430092EDE72D28F1D13E
S315080080200A4AD2F84031D2F840211F2B4FF00103FB
S3150800803085BF203A93409340019398BF0093DBE7AE
S31508008040DD95002068AE002000710800008000441D
S31508008050000000200B020FF0B1F5002F0BD800F13D
S315080080607843B3F5002F06D8044B084498428CBFD2
S315080080700020012070470020704700BF0000080854
S3150800808038B54FF00065AB6A044603F17842B2F59D
S31508008090C04F12D21B6B03F17843B3F5C04F0CD215
S315080080A00648FFF735FEAB6A20461B6B5B689847A8
S315080080B0BDE838400148FFF7EBBE38BD581F002021
S315080080C0F8B54FF00067BB6A164603F17842B2F579
S315080080D0C04F04460D4611D21B6B7BB10948FFF70A
S315080080E017FEBB6A20461B6B324629465B6A9847D1
S315080080F004460448FFF7CCFE2046F8BD4FF4017449
S31508008100FAE700BF581F002070B54FF00066B36A43
S31508008110044603F17842B2F5C04F0D4614D21B6BE4
S3150800812003F17843B3F5C04F0ED20948FFF7F0FDC7
S31508008130B36A20461B6B29469B6A9847044604483F
S31508008140FFF7A6FE204670BD4FF40174FAE700BF9C
S31508008150581F0020F0B58FB0044601A80E461546F4
S31508008160FFF78EFF9DF80C30012B1AD129462046C1
S31508008170FFF772FF98B940F2024420460FB0F0BDEF
S31508008180E25801322AD104339D42F9D82A463146AB
S31508008190204600F0C5F80028EDD00024EDE70023BE
S315080081A0F2E74FF00067BB6A03F17842B2F5C04FB9
S315080081B017D21B6B03F17843B3F5C04F11D20A48A7
S315080081C0FFF7A6FDBB6A2A461B6B314620469B6B0A
S315080081D0984704460448FFF75BFECEE740F203449F
S315080081E0CBE740F20114C8E7581F002070B58EB0DF
S315080081F0044601A80D46FFF743FF9DF80C30012BF6
S315080082001ED144EA0503C3F30C03002B34D12946D7
S315080082102046FFF721FF20B940F2024420460EB05F
S3150800822070BD2544204604F5005400F06BF8AC42B6
S3150800823002D00028F6D1EFE70028EDD00024EDE7BC
S315080082404FF00066B36A03F17842B2F5C04F16D212
S315080082501B6B03F17843B3F5C04F10D20948FFF7FB
S3150800826057FDB36A29461B6B2046DB6B98470446C5
S315080082700448FFF70DFED1E740F20444CEE740F28A
S315080082800114CBE7581F002030B591B0044603A867
S31508008290FFF7F6FE9DF81430012B10D1069BA3427A
S315080082A028D9204601A926F0CCFB044620B9DDE9E9
S315080082B00101FFF79BFF0446204611B030BD4FF081
S315080082C00065AB6A03F17842B2F5C04F15D21B6B55
S315080082D003F17843B3F5C04F0FD20948FFF718FDED
S315080082E0AB6A20461B6B5B69984704460448FFF750
S315080082F0CFFDE1E740F20144DEE74FF48174DBE7A6
S31508008300581F00204FF4803208B5044B9A6633F0A4
S31508008310E3F9B0FA80F0400908BD00BF00900050AC
S31508008320134610B562B103439B070BD14FF4803453
S31508008330054B9C6633F0D4F9B0FA80F0400910BDBD
S315080083400120FCE70020FAE700900050BFF34F8FAA
S315080083500549064BCA6802F4E0621343CB60BFF3D3
S315080083604F8F00BFFDE700BF00ED00E00400FA05EF
S3150800837070B5D0B1C9B10E4E431E013913F8014F7D
S315080083802046325D02F00302012A11F8012F08BFC8
S3150800839004F12000B55C05F00305012D08BF203265
S315080083A0801A01D1002CE9D170BD0120FCE700BF7D
S315080083B0C22B040840B1054A1378012B04D8037070
S315080083C0013300201370704701207047DF950020A5
S315080083D030B5056887B0AB8804461848ADF80C3048
S315080083E028F00AFE0022012103A800F0FDF80DF18D
S315080083F00B0103A800F0D8F99DF80B3083F00103B0
S315080084002B70AB79022B15D14FF0FF330022CDE943
S31508008410043304A90A4B009403A800F077FA049BD6
S31508008420009401330CBF04220122054B05A903A8B9
S3150800843000F0E8F9002007B030BD00BF5CC00308B3
S31508008440DDEB0208002307B52948019328F0D4FD7F
S315080084504FF44073012204216846ADF8003000F05D
S31508008460C3F80122234B0520C3F8442401A932F09E
S31508008470BFF9002839D1204BD3F8F02042F0010289
S31508008480C3F8F020D3F8FC2042F08072C3F8FC2031
S315080084901A4AA3F55D431A60019B194A03F5D523C9
S315080084A003F2FC43B3FBF2F3164A013B13610223C2
S315080084B0C2F8F0304FF48073C2F804334FF06043CB
S315080084C0114AC3F8B02F114AC3F8802ED3F8002EEC
S315080084D042F48072C3F8002EFF2283F82020D3F8D6
S315080084E0002E22F48072C3F8002E03B05DF804FB58
S315080084F05CC0030800D0035000ED00E0FF03004015
S31508008500F8590D00000004E055CEACC5090001007D
S315080085104FF06043D3F8802E30B5D20715D5012425
S315080085200B4D8440D5F8FC2042F08072C5F8FC203B
S31508008530D3F8002E2243C3F8002E53F82020002A31
S31508008540F0D003F82010002030BD1120FCE700BF52
S3150800855000ED00E02DE9F04104460C254FF0010836
S31508008560124E0CB314F001000BD0002024F00104C5
S3150800857005FB00625768002FF3D09168C0B2B84770
S31508008580EFE72246013020284FEA520201D0D307EE
S31508008590F8D508FA00F20F2824EA0204E8D91038B8
S315080085A005FB0062B432E5E7BDE8F081781F0020DC
S315080085B008B50C4828F020FD1A2006F031FD28B130
S315080085C01A2006F03BFD1A2006F01CFD1B2006F0BB
S315080085D027FD28B11B2006F031FD1B2006F012FDF1
S315080085E0002008BD5CC003082DE9F0410E46174679
S315080085F0054618B30F2923D80378E3B1013BDBB24C
S31508008600022B1DD8104A32F813306A78D340DB079C
S3150800861016D50E4BD3F81043A4B932F05FF880464E
S315080086203A462846314603F00FFD404632F051F8E7
S315080086302046BDE8F08140F2FF73E6E72224F7E71B
S315080086402124F5E70224F3E774BC030800C00350AD
S3150800865010B50446E8B10378C3B1013BDBB2022B7F
S3150800866019D80E4A32F813306278D340DB0712D590
S3150800867032F034F80122637821789A40302359433E
S31508008680074B5A5032F025F8002010BD40F2FF7310
S31508008690EAE72220F9E72120F7E700BF74BC0308C0
S315080086A040D0035010B50446E8B10378C3B1013B86
S315080086B0DBB2022B19D80E4A32F813306278D3404F
S315080086C0DB0712D532F00AF80122637821789A403E
S315080086D030235943074B5A5031F0FBFF002010BD99
S315080086E040F2FF73EAE72220F9E72120F7E700BF07
S315080086F074BC030840E0035010B50446E8B103789B
S31508008700C3B1013BDBB2022B19D80E4A32F813303B
S315080087106278D340DB0712D531F0E0FF0122637897
S3150800872021789A4030235943074B5A5031F0D1FFEC
S31508008730002010BD40F2FF73EAE72220F9E7212066
S31508008740F7E700BF74BC030840F0035038B50D4680
S31508008750044618B311B30378EBB1013BDBB2022B25
S315080087601ED8104A32F813306278D340DB0717D583
S3150800877031F0B4FF30222378534303F1A04303F5C5
S3150800878070331B6C6278D34003F001032B7031F011
S31508008790A0FF002038BD40F2FF73E5E72220F9E785
S315080087A02120F7E774BC030838B50D46044618B30C
S315080087B011B30378EBB1013BDBB2022B1ED8104A8A
S315080087C032F813306278D340DB0717D531F086FFCD
S315080087D030222378534303F1A04303F570335B6CCF
S315080087E06278D34003F001032B7031F072FF00204A
S315080087F038BD40F2FF73E5E72220F9E72120F7E7C5
S3150800880074BC03082DE9F0410D4616469846044601
S31508008810002852D0002950D00378002B43D05A1E86
S31508008820D2B2022A03D9FF2B08D0212043E0244BD9
S3150800883033F812304278D340DA07F6D5022E01D93A
S31508008840042EF2D131F04AFF23780746FF2B05D0D4
S3150800885032462046296803F03DFC28602B68013320
S3150800886009D12378FF2B06D1164B6078D3F8241448
S3150800887027F0DFF8286029684B1C18D00C23124A09
S3150800888003FB0122069BC2F8048093602378FF2B22
S3150800889004D001230D4A8B40C2F82434384631F0FF
S315080088A018FF002007E040F2FF734278C3E7384616
S315080088B031F00FFF2D20BDE8F0812220FBE700BF35
S315080088C074BC030800C00350781F002000D0035072
S315080088D00F2810B5044613D831F000FF0123094AC2
S315080088E0A340C2F82034C2F824340C22064B02FBFB
S315080088F004330024C3E9014431F0EBFE204610BDE1
S315080089002120FCE700E00350781F00202DE9F04104
S315080089100D4690461F460446002843D0002941D0FC
S315080089200378002B34D0591EC9B2022903D9FF2B6C
S3150800893008D0212034E01C4B427833F81130D3405C
S31508008940DA07F6D531F0CAFE23780646FF2B05D09E
S3150800895042462046296803F043FC28602A68531CCF
S315080089601AD00C23114903FB0211069BC1F8B870F3
S31508008970C1F8BC302378FF2B05D001231032934071
S315080089800B4AC2F82434304631F0A3FE002007E033
S3150800899040F2FF734278D2E7304631F09AFE2D2036
S315080089A0BDE8F0812220FBE774BC0308781F00208D
S315080089B000D0035008B503F02DFB054B00F05530E9
S315080089C020F05020C3F82004BDE80840FFF7C2BDD8
S315080089D000E0035008B503F01DFB054B00F0AA3074
S315080089E020F0A020C3F82004BDE80840FFF7B2BD78
S315080089F000E0035013B504460A4828F0FDFAA278A9
S31508008A000421B2FA82F2237852098DF80430637889
S31508008A100DEB01008DF80530FFF7E6FD002002B0EA
S31508008A2010BD00BF5CC003082DE9F04F9A46564BAF
S31508008A3085B01B7806460F461546DDF83C909DF82E
S31508008A4044B0DDF85080002B00F09780072A00F22A
S31508008A5096800E9B002B00F09280B9F1000F00F073
S31508008A608E80129BB3F5006F00F38980012803D12D
S31508008A70109B002B00F08380444B03EB05131B7BF4
S31508008A80002B7ED0424C10220021684625F0D1FBEF
S31508008A9004EB45141022A7BB3946204625F0C9FB2E
S31508008AA043F210036380BBF1000F03D1E37843F070
S31508008AB00303E370364A0E9B02EB451CCCE901938F
S31508008AC0129B6901581E9DF84C30C0F30A0003F04A
S31508008AD003039B0643EA001E53582E48012E00EA5C
S31508008AE003004EEA0003CDF800A0535017D0B8F1A2
S31508008AF0000F2ED19CF8023068F304138CF802306C
S31508008B0027E00021204625F094FB4FF44473638048
S31508008B10BBF1000FCED1E37843F03003C9E7132346
S31508008B200CF1100ECCF80C309CE80F008EE80F0004
S31508008B306FF00301DCF81C20109B61F39F02012FE4
S31508008B40CCF81C20CCF8143003D1CCF81890CCF80B
S31508008B50043000270D4A290102EB051342F801806B
S31508008B60159A28465A60694622469F605E7303F046
S31508008B7045F9384605B0BDE8F08F0748FAE70748D3
S31508008B80F8E70748F6E700BFE0950020E021002057
S31508008B90E02000200F80FFF3028000F0018000F043
S31508008BA0078000F038B5124B05461B78DBB1E0B1FB
S31508008BB031F094FD0F4A00231146147B54B92B60FB
S31508008BC001251A0101EB03131D738C5031F081FD49
S31508008BD0204638BD0133082B02F11002EDD131F0E1
S31508008BE078FD0548F5E70548F3E70548F1E700BFCE
S31508008BF0E0950020E0210020048000F0028000F0CB
S31508008C00018000F038B531F069FD002305460B4AAE
S31508008C10147B6CB90133082B02F11002F8D103F06A
S31508008C2099F8074B28461C7031F053FD204603E09F
S31508008C30284631F04EFD034838BD00BFE02100202C
S31508008C40E0950020058000F00D4B10B51B78044612
S31508008C5093B1072812D831F041FD0A4B03EB0413F0
S31508008C601A7B2AB100241C7331F033FD204610BD4F
S31508008C7031F02FFD0448FAE70448F8E70448F6E718
S31508008C80E0950020E0210020068000F0028000F038
S31508008C90018000F0154B13B51868002301908DF874
S31508008CA0043031F01BFD124B1C7824B131F011FD54
S31508008CB0104802B010BD01221A7031F00AFD0E4BA1
S31508008CC001A81C731C7783F82C4083F83C4083F872
S31508008CD04C4083F85C4083F86C4083F87C4008235A
S31508008CE08DF8073003F05AF82046E2E77ABC030805
S31508008CF0E0950020038000F0E0210020F8B50D4D36
S31508008D002D7885B1072810DC0B4D060105EB0014FC
S31508008D10277B67B1AB510025069BA560636003F00E
S31508008D206DF82846F8BD0548FCE70548FAE7054802
S31508008D30F8E700BFE0950020E0210020028000F05F
S31508008D40018000F0078000F00A4A08B512785AB187
S31508008D5007280BD8084A02EB00131B7B43B10021F6
S31508008D6003F00EF8002008BD0448FCE70448FAE7BB
S31508008D700448F8E7E0950020E0210020028000F092
S31508008D80018000F0078000F00A4A08B512785AB147
S31508008D9007280BD8084A02EB00131B7B43B10121B5
S31508008DA002F0EEFF002008BD0448FCE70448FAE795
S31508008DB00448F8E7E0950020E0210020028000F052
S31508008DC0018000F0078000F0184B2DE9F0411F6D77
S31508008DD05B6D1F4000D5FEE701260025144CDFF821
S31508008DE05880374218D02368C8F85060A3B1A168E4
S31508008DF0284601316268A1609847637B012B0BD135
S31508008E0050B90C4B03EB45131A7B60F341021A73F6
S31508008E101A7F60F341021A770135082D4FEA460694
S31508008E2004F11004DDD1BDE8F08100BF0000045054
S31508008E30E0210020E0200020002004502DE9F04F1A
S31508008E40144606460D469B46C36B87B001225B69EE
S31508008E5002A960689847F36B01225B6903A9284653
S31508008E60984702A826F0DFFB074648B10023A375FA
S31508008E7063754FF0FF33A360002007B0BDE8F08F9D
S31508008E8003A826F0DDFB0123A375237E04EBC303A9
S31508008E90DD611F846368AB420ED1206003A826F00B
S31508008EA0F1FB4FF0FF332075A360237D043B022BB3
S31508008EB026D80023A375DFE723681A1A53425341BD
S31508008EC0A37503A826F0DEFB237D834218BFA7758A
S31508008ED003A826F0B9FB074602A826F0B5FB874289
S31508008EE018BF002303A818BFA37526F0B5FB0746CD
S31508008EF002A826F0B1FB87421CBF0023A375D4E75E
S31508008F0003A826F0A1FB80B1F36B022228465B6911
S31508008F1004A9984704A826F0A6FB0346207D032843
S31508008F2039D8DFE800F03838040903A8F3E7CC227B
S31508008F30237E04EBC3031A8401F0BAFA109B187057
S31508008F4003A8277E26F074FB04EBC70787F82200E0
S31508008F50237E03A804EBC303B3F8209093F822708A
S31508008F6026F072FB804603A826F076FB8246B8F107
S31508008F70000F15D0F36B022228465B6904A99847AF
S31508008F8004A826F035FB6075637D6BB90023A375CD
S31508008F904FF0000838E0227E04EBC2021384CBE7C8
S31508008FA003A826F010FBEEE794F81680B8F1000F38
S31508008FB0EED0B9F1000F09D1DFB10123627EE37566
S31508008FC0002A44D19F4218D1677614E0736C05EBEA
S31508008FD00A02594285EA020008421CBF0021A1750F
S31508008FE0591E0A409B1A9945D0D8A37D002BE3D178
S31508008FF0CEE7E37D43B94FF000084B465246294673
S31508009000304625F0F8FFA060A27D12B123694B44D3
S3150800901023611449237E097899421ED901332376A0
S31508009020BBF1000F1BD0D2B1E37DC3B1B8F1000F7D
S3150800903015D1032F13D0A1684B1C10D0109B2246C4
S31508009040009330460123FFF7F9FEA07507E0012FCC
S31508009050DAD0032F08BFA376CDE70023A375A07D3A
S315080090600BE700BFA0BC03082DE9F04F0E46984653
S3150800907000238BB004464FF0FF31104617468DF893
S31508009080133001F0FFF9B6F5801F3BD3B21C53D15C
S31508009090E56A6B1C57D12046616A25F0F2FE054643
S315080090A0B31C18BF0123DFF810910193636A626C41
S315080090B00293236805A902FB053AE36B05225B695F
S315080090C05046984705A826F049FB26F06CFB504603
S315080090D026F074FB4FF0000B824601464B1C05D068
S315080090E0636C81EA0A025B42134232D02946204663
S315080090F025F0C7FE029BAB424DD0BBF1000F4DD108
S315080091000546D3E7314605AA04F1080026F0D9F941
S315080091100146481C10D0384601F0B4F901223946F8
S3150800912020460DF1130325F0B8FF28B19DF813303A
S3150800913088F80030002003E0237C002BA8D12D20DE
S315080091400BB0BDE8F08F2368ED1A636CB5FBF3F539
S31508009150A6E7484601F096F90DF11303494620465D
S31508009160019A25F09AFF034690B1B21C03D0D9F8AC
S315080091700020B2420CD19DF8132003930D4B88F8BA
S31508009180002049461A6838462EF031FD039B9B4657
S31508009190D9F80810A2E7BBF1000FD0D0B6F5801FAA
S315080091A0C8D2314698F800307A6804F1080001F010
S315080091B097F8BFE79CBC0308B42500202DE9F341C6
S315080091C00446174698460E46194D816AE36A8B424D
S315080091D02AD04B1C18E0284601F054F901222946EA
S315080091E020460DF1070325F058FF30B143462946BE
S315080091F020469DF80720B847B0B1A9684A1C05D093
S31508009200012E0AD0E36A9942E5D10DE06968204645
S3150800921025F0C4FE012E0146D8D16B6881EA030207
S31508009220636C5B421A42D1D002B0BDE8F08100BF40
S31508009230882500202DE9F041036B9046826B07686C
S315080092409A4288BF8363426C436A90B002FB0377F5
S31508009250C36B0E46052201A95B6904463846984742
S3150800926001A826F07BFA01280146307057D0656CB4
S31508009270E26B2368606AD2F814C005FB0030052249
S3150800928006A9E04706A826F069FA01284FF0000566
S3150800929023D0D4E90A3201219342CDE90B458DF852
S315080092A034800E958DF83C102AD11946204625F0B3
S315080092B075FE236B626C14339B1AE06223630C9B66
S315080092C053B99DF83C303BB1626A616C2368E06B28
S315080092D001FB023126F0FAF90C9DE36B05225B6966
S315080092E001A93846984701A826F038FA307028466A
S315080092F0236BA26B9A4288BFA36310B0BDE8F081C6
S31508009300237C33B91C490BAA04F1080001F036F88E
S31508009310D5E72046194A0BABFFF750FFCFE7237C6A
S3150800932023BB2246164904F1080001F027F8616AB2
S31508009330204625F0C7FD616A421C204625F090FDAF
S31508009340054620B9236B626C1344143B23632046FD
S31508009350A16A25F023FE2368A062C01A636CB0FBDD
S31508009360F3F06062204625F05CFEB6E7002320464F
S31508009370044AFFF723FFDAE7499B0008C59A000865
S3150800938023F10208BFF0020873B50D46D11E4A4202
S315080093901C461B7E4A419A4226D12968236899426F
S315080093A022D3636899421FD8114E0DF1070332463E
S315080093B0FFF75AFEC0B972686B689A4214D19DF8D5
S315080093C00730DA1E53425341227E93420CD1636919
S315080093D001336361D4E90323934205D22968A2685D
S315080093E042F8231001332361012002B070BD00BF8B
S315080093F0E02500202DE9F04F9A468BB09DF85030B5
S31508009400DFF850B10293DBF81030804653450D461D
S315080094101646C0F09980D146DBF804300193B9F1BD
S31508009420000F00F08D80D8F83C3001225B6907A94F
S315080094300198984707A826F003F9DBF80030984208
S3150800944040F0858007A826F007F90428074614D1B6
S3150800945007A826F008F9019B029A04463B44002A0D
S315080094603FD1864212D91446361A4046019925F04C
S3150800947095FDA9EB04090190D1E7D8F83C30022202
S315080094805B69019808A9984708A8E2E7841B544530
S3150800949028BF5446032C03EB0607AAEB040A4FEA37
S315080094A094021CD9D8F83C30294638465B69984757
S315080094B024F0030304F003061F441D44002ED4D0F1
S315080094C0D8F83C3001225B6908A9384698473246E5
S315080094D0284608A935442EF08AFB0026C5E7264605
S315080094E0ECE7074600F00302039203442A180492A5
S315080094F00593049BDD1B059BD81B039B9F420FD13D
S31508009500002FB2D0D8F83C30012208A95B699847E9
S315080095103A46284608A92EF0E6FA78B93D44A4E763
S31508009520D8F83C30012208A95B69984704222846E6
S3150800953008A92EF0D8FA08B9043FDAE74FF0360939
S3150800954048460BB0BDE8F08F4FF06309F8E74FF0D7
S315080095506F09F5E70C2600202DE9F0410F4616465F
S315080095609846044688B060B390F83450FDB101219E
S3150800957025F04CFC00210E9BCDE90511CDE90237FB
S315080095809DF83C30CDF804808DF81C30237C049679
S315080095908BB90D4901AA04F1080000F0EFFEDDE9D8
S315080095A00553E06B002E08BF1D4625F0C8FD28466A
S315080095B008B0BDE8F0812046044A01ABFFF7FEFD7E
S315080095C0EDE70546F3E700BFEDF0020889930008CA
S315080095D02DE9F04F99B00F4609920A69416C0E932E
S315080095E01439D31DB3FBF1F3013302EBC302036B4A
S315080095F004469342C0F00D820023DFF820940D93B1
S31508009600E36A48461946079300F03CFFD7E9033654
S3150800961004930E9B022B4ED1CC2E40F08A81099BD7
S31508009620002B42D03946204625F0E7FD656C079A9F
S315080096306B1E13401490ED1AE36B01225B6916A9A1
S315080096407868984716A825F0FFFF00280CBF042362
S315080096500823782E06933DD9012300254FF0080AE2
S3150800966005933B6805990E98C9F80030C9F810604B
S3150800967026F00CF84FEA9A0310930023DDF81CB085
S3150800968089F814000B930F9308930C93616C4A1E88
S315080096900BEA02028B1A002E38D05544AB4240D84A
S315080096A0236B5B1A13442363ABE0049B1B68149378
S315080096B008230693D0E7656C079A6B1E1340782E2D
S315080096C0A5EB030516D8FB7D7BB9099B002BB3D107
S315080096D004230693331DAB4210D9A6B1082DBBD877
S315080096E004250023AA460593BBE7099B002BA3D1B3
S315080096F00823EEE7099B002B9ED1D9E7002505959F
S315080097004FF0040AADE704250596F9E75345C7D394
S31508009710B0460BEB0A030393089B002B18BF0323E1
S3150800972013E0A3EB0A039E42B0460BEB0A0228BFDE
S3150800973098469E420392EFD90123D9F8102089F85A
S315080097401730964271D1C9F804B0089399F81730C2
S31508009750002B6CD099F818200899D31C09EBC30381
S315080097600132C3F804B0A3F80880997289F8182062
S31508009770B8F1000F14D00E9B022B5BD10B9B7BB963
S315080097800F9B4344032B0BD9E36B01229B69039878
S3150800979014A998470546002840F03D8101230B93FC
S315080097A0089B16A80193059B009399F81420434635
S315080097B0396800F01DFEE36B58469B69109A16A996
S315080097C09847051E0D9B18BF5B4652460D93594692
S315080097D04346204625F00FFC236B08F10302A3EB52
S315080097E00A0322F003029B1AC9F808002363002D16
S315080097F040F011810F9BDDF80CB04344A6EB080638
S315080098000F935946204625F0C9FB00258346002EAE
S315080098107FF43CAF814A3968936804F10800E36233
S3150800982052680E9B00F05CFDDEE002238DE7C9F866
S3150800983004B09DE7099B002B30D1049BB8F1030FB8
S3150800984043440A9327D9DDE90301E36B4FEA9802FB
S315080098509B6998470546002865D118F003025FD032
S31508009860049B28F003052B440493039B1D444FF0E7
S31508009870FF33049915A815932EF0B9F9E36B28461A
S315080098809B69012215A9984705460A9B0493002D52
S3150800989086D0039B99E74246039DE8E7039B0A9314
S315080098A007F120031193FB7D78689BB100233D7E69
S315080098B00C9AD9B28D4211D9119903F1010C31F8DC
S315080098C03310914226D9069907EBC303D8690A448F
S315080098D0104403E00C9B069A13441844E36B0122D8
S315080098E05B6915A99847159B012213930C9B0A9847
S315080098F004330C93E36B13A99B699847039B0A9A55
S3150800990043449B1A042B054607D978B913460433F2
S315080099100A93C8E76346521ACBE70A9B0393B6E74E
S315080099200A9B04933CE70A9B0493B2E70A9B0393BA
S31508009930AFE7702604F1080303932368079A606C5F
S31508009940A2EB030ABAFBF0FA00FB0A3025F036FF51
S31508009950E16A8046204625F021FBA26A82424AD067
S31508009960626CD9F80830511E0B40216B2568891A9C
S315080099700B4423630D9BE0625D1BB5FBF2F5AA451C
S3150800998036D1079BB3EB080A12D0E36B4FEA9A026B
S3150800999041469B6998478346E36A079A5344E362BC
S315080099A0236B03989B1A4344236325F05BFDDA4631
S315080099B02368616CE06B01FB053125F074FE2046D7
S315080099C025F02FFA204625F02CFB2063BAF1000F6C
S315080099D011D03A69616CD31D1439B3FBF1F3013325
S315080099E002EBC3029042A8D2304619B0BDE8F08F08
S315080099F04FF0000ADCE73A69616CD31D1439B3FBF2
S31508009A00F1F3013302EBC302236B9342BFF4F8ADC3
S31508009A10EAE71C26E8E72E468CE700BFB4250020B7
S31508009A202DE9F3471E4643690446B342884617465E
S31508009A309DF828903DD300258DF80750204625F03F
S31508009A40BCF9D4F830A082450AD2236AB5EB430F95
S31508009A5006D2002220460DF10701FFF7EBFB30B3D3
S31508009A609DF80730012B05D1002220460DF107018C
S31508009A70FFF7E0FBB9F1030F06D03146204625F083
S31508009A8087F9256B854218D30D4D4FF0FF312846CF
S31508009A9000F0F8FC4B46002229462046C5E9037625
S31508009AA0C5F8008002B0BDE8F047FFF791BD013563
S31508009AB0C4E7622002B0BDE8F0871C20FAE700BFC1
S31508009AC0E0250020032A2DE9F34106460D461746F0
S31508009AD01C4606D1237A012B23D0012002B0BDE80B
S31508009AE0F081DFF86080096842460DF10703FFF749
S31508009AF0BBFA60600028EDD19DF80720237A032A77
S31508009B00E8D0D8F804106A689142E3D1012B296994
S31508009B10D4F80CC007D172690CEB0103934202D941
S31508009B202074207CDAE708316144E1603B46012273
S31508009B3029463046FFF74CFD60600028CAD0002051
S31508009B40CCE700BFE02500202DE9F341089C032A55
S31508009B501746266806D1237A012B24D0012002B0A5
S31508009B60BDE8F081DFF89080304642460DF10703E4
S31508009B70FFF77AFA60600028EDD12568D8F8040066
S31508009B80A96AD5F844C04840CCF100031840227AA7
S31508009B90E1D1012A09D1E268D8F810301344726974
S31508009BA0934202D92074207CD9E72868EB6A1B1AED
S31508009BB0081AB3FBFCF3B0FBFCF083420BD1706CC4
S31508009BC0F36A421E1340326B121A13442846336353
S31508009BD025F0E4F9E862D8F81020E368083213445F
S31508009BE0E36001223B4604492068FFF7F1FC606008
S31508009BF00028B0D00020B2E7E02500202DE9F04F7C
S31508009C004FF0FF334FF6FF720025044600F10806B1
S31508009C10C0E909238BB0C3620562056330460F4667
S31508009C2025F020FC204625F0FCF820BB20463946C6
S31508009C3025F077F9204625F0F4F820BB5E200BB016
S31508009C40BDE8F08FE26B2368606CD2F814C000FBA5
S31508009C500530052205A9E04705A825F07FFD01285E
S31508009C6028D12946204625F02DF9421C29462046AA
S31508009C7025F0F6F80135E3699D42E3D3204625F041
S31508009C80D0F80028D2D000254FF0FF394FF6FF73E1
S31508009C90CA46A846C4E90853E369984514D3A5EB10
S31508009CA00905012D36D84FF6FF72636A934246D1ED
S31508009CB06720C4E725F07CFD0028DBD0294620462E
S31508009CC025F000F90246D1E72368E26B606C576914
S31508009CD000FB0830052205A9B84705A825F03EFD72
S31508009CE0834605A825F011FD0746584625F05BFD75
S31508009CF068B1574538BFC4F82480B94528BFB94666
S31508009D00BD4238BF3D46BA46236A0133236208F18D
S31508009D100108C1E74FF6FF7300256362E3699D42B8
S31508009D20C1D2676C2068E36B052207FB05005B69F7
S31508009D3005A9984705A825F0E8FC0135EEE7E26B8A
S31508009D40676C2068694607FB030055690522A84722
S31508009D50684625F0DAFC626A2368606C504D00FBA1
S31508009D60023025F02BFD4FF0FF33A062E3622A464E
S31508009D706FF00101204605ABFFF776F900284FD1B1
S31508009D80AD6829462046E56225F027F8206320B904
S31508009D902046E16A25F002F9E0622946204625F0C8
S31508009DA0FDF80546A36A9D423CD16569626CE91CCB
S31508009DB0143AB1FBF2F14FF0000805EBC105033583
S31508009DC0B5FBF2F5C1460235E36999453CD3A8458A
S31508009DD05AD22046616A25F054F80027064604F14F
S31508009DE0400AB84512D8626C2368694602FB0639F0
S31508009DF0E36B05225B6948469847684625F085FC6B
S31508009E00534602464946E06B25F0DAFC31462046C1
S31508009E1025F037F80137AF420646E2D364200EE74D
S31508009E20A56AAEE72946204624F0D7FF236B2946C4
S31508009E30034407462363204625F0B0F80546002F5D
S31508009E40B0D1C4E90B07ADE7636C2768052203FBAD
S31508009E500977E36B05A95B693846984705A825F095
S31508009E607DFC25F0A0FC60B1384625F0A7FC01462C
S31508009E70204624F0B2FF636C143B984208BF08F1F1
S31508009E80010809F101099FE7304625F0EBFA00239E
S31508009E9020461946034AFFF791F90020CFE600BF8E
S31508009EA0E025002089F002080023624A2DE9F041E6
S31508009EB017680E460446136018B921252846BDE8DA
S31508009EC0F08190F834500DB309680268914240F069
S31508009ED0A98071684268914240F0A480B16882689E
S31508009EE0914240F09F80F168C268914240F09A80A2
S31508009EF031694269914240F09580B169C26B9142DD
S31508009F0040F0908072691D468261D7E75022294643
S31508009F10D0F8388024F08DF9D6E90212336804F1B6
S31508009F20080023607368C4F8388063603369636126
S31508009F307369A36125F0A8FAB36904F14000E363E5
S31508009F409B68984794F8432020B1E561002AB4D06D
S31508009F505B25B3E7656C002DF7D06668B6FBF5F3AD
S31508009F60E361002AA9D0B542F2D82268B2FBF5F11E
S31508009F7005FB1122002A57D105FB1363002B53D189
S31508009F80204624F01AFFA369043303449E424DD3A6
S31508009F9040F634726369CC3B934249D8B5F5805F85
S31508009FA0D6D30321204624F031FFD4E90001E36B20
S31508009FB01B6898470546E36B0220DB6898471DB186
S31508009FC0002384F834301DE039462046FFF716FE94
S31508009FD06428054604D139462046FFF70FFE054694
S31508009FE0636C143B002DEBD1226A204602FB03F674
S31508009FF024F0E3FEA369043303449E4206D284F8A0
S3150800A00034505A25E06B25F09AF857E70123D4E92E
S3150800A0100001094A84F8343013680133136025F0C7
S3150800A020CDFAEFE75D2549E7592547E75A2545E77C
S3150800A0305F2543E7642200206022002008B578B136
S3150800A04090F8343073B10023074A80F83430136827
S3150800A050013B136013B9C36B5B689847002008BDC2
S3150800A0602120FCE71120FAE7602200202DE9FF41B4
S3150800A0700F4690461E46054698B390F8343093B37B
S3150800A080B1F5801F31D21A4C022124F0BFFE2246B8
S3150800A090394628460DF10F03FEF7E6FF024678B16A
S3150800A0A0012342460093394633462846FFF7B8FC53
S3150800A0B00446E86B25F043F8204604B0BDE8F08175
S3150800A0C09DF80F30012BEBD12169B142E8D10093FD
S3150800A0D0414633462846FFF78DF904460028DFD166
S3150800A0E0E7E72124E8E71124E6E72924E4E700BFA7
S3150800A0F00C2600202DE9FF410C4616461F4605464C
S3150800A10080B390F834307BB3B1F5801F2ED2DFF8D8
S3150800A1106080012124F07AFE2146424628460DF148
S3150800A1200F03FEF7A1FF044670B99DF80F30012B07
S3150800A13011D1D8F81030BB4212D1024600903146F0
S3150800A1402846FFF757F90446E86B24F0F8FF20463F
S3150800A15004B0BDE8F081022B14BF2D246024F3E778
S3150800A1606324F1E72124F2E71124F0E72924EEE736
S3150800A1700C2600202DE9F04385B00C4617461E46EE
S3150800A1800546DDF8308098B390F8343093B3B1F5CE
S3150800A190801F31D2DFF86490012124F037FE214672
S3150800A1A04A4628460DF10F03FEF75EFF044688B9B6
S3150800A1B09DF80F30012B14D1D9F8102006EB0803AF
S3150800A1C09A4213D300904346324639462846FFF74B
S3150800A1D011F90446E86B24F0B2FF204605B0BDE845
S3150800A1E0F083022B14BF2D246024F3E76324F1E7E0
S3150800A1F02124F2E71124F0E72924EEE70C260020B3
S3150800A2002DE9F3411F4600230C46164605463B60DA
S3150800A21050B390F834304BB3B1F5801F28D2DFF82D
S3150800A2205480012124F0F2FD2146424628460DF1CC
S3150800A2300703FEF719FF0446A0B99DF80730032B5C
S3150800A24010D0022B0AD10123336004233B60E86B4C
S3150800A25024F075FF204602B0BDE8F081D8F810302A
S3150800A2603060F3E72D24F2E72124F3E71124F1E720
S3150800A2702924EFE70C26002030B50C46054685B0A4
S3150800A28028B390F8343023B3B1F5801F23D20221C6
S3150800A29024F0BCFD0DF10F03214628460F4AFEF7B0
S3150800A2A0E3FE034688B99DF80F20032A0DD0032242
S3150800A2B02146009202462846FFF7B2FB0446E86BA1
S3150800A2C024F03DFF204605B030BD2D24F7E72124B4
S3150800A2D0F8E71124F6E72924F4E700BF0C26002046
S3150800A2E02DE9F043466886B3056898464FF0000C9A
S3150800A2F0A946AE4655F83C400CF1010CC4F31307C9
S3150800A300013401D0B94217D066450EF1080EF1D1D5
S3150800A3102F46002403E0A64207F1080712D055F895
S3150800A320343001340133F6D1C1F3130141EA08513F
S3150800A330C7E90012BDE8F08341EA0851CEE90012E8
S3150800A340BDE8F083B8F1030F03D101230372BDE81A
S3150800A350F083002303E09E4209F10809F5D055F879
S3150800A36033400133C4F30754032CF4D1C1F3130368
S3150800A37043EA0853C9E90032BDE8F0832DE9F04104
S3150800A3800646406882B0C0B10F469046002433683E
S3150800A39053F8345003EBC403C5F30752C5F313014E
S3150800A3A0013504F1010406D05B683046CDF800801B
S3150800A3B0B84710B170688442E9D302B0BDE8F081AD
S3150800A3C0024B1968024B1868FFF76EBD48AE0020AD
S3150800A3D068AE002008B530F078F9014B186008BD62
S3150800A3E038260020014B186830F06AB93826002054
S3150800A3F073B504462248012A00EAC1119DF818508F
S3150800A40023F07C4007D9961E012E28D9073303F07E
S3150800A4107F03194308E09DF81C300A43DB0603F066
S3150800A420C053134343F060410023C4E900108DF87C
S3150800A4300730B5B1202221460DF1070025F0DAF9DB
S3150800A4401A220DF10700211D25F0D4F908206368AA
S3150800A4509DF8072043EA8263636002B070BD11432A
S3150800A460E2E71B220DF10700214625F0C3F9236810
S3150800A4709DF80720042043EAC2632360EDE700BF86
S3150800A48080FFFF0738B5094B0D461A6800210446B8
S3150800A49023F0CFFE00234FF0FF322383C4E90025C3
S3150800A4A02361A260E382A37638BD00BF9CBC030883
S3150800A4B00138C0B205289ABF014B185C01207047C5
S3150800A4C0A1BC03082DE9F0410746154600240E46AF
S3150800A4D0596888B0490A012922464FEA510104F110
S3150800A4E00104F8D8DC78997824031B88C90201F49A
S3150800A4F0006104F480540C43C3F30A035203234453
S3150800A50092B24FF000089C18274B6FEA0444039355
S3150800A51025F07843ED4302A90DF107001B220293AB
S3150800A5208DF8078025F066F99DF80720029B02A999
S3150800A53043EAC2630DF107001B2225F07845049310
S3150800A54002958DF8078025F055F99DF80720029B9E
S3150800A5506FEA144443EAC26305934FF0FF33079446
S3150800A560069307A9BB69012206F110009847BB6943
S3150800A57005A90446012206F108009847BB6940452B
S3150800A58018BF044604A90122301D984701224045F8
S3150800A59018BF0446BB69304603A99847404508BF1B
S3150800A5A0204608B0BDE8F08101009AB2034B5A680C
S3150800A5B012B19A6A002AFAD1704700BF00400650C5
S3150800A5C043681249B3FA83F310B5C3F11F044B6805
S3150800A5D00BB1FFF7EBFF01220D4B5A604B689B0747
S3150800A5E0FCD4027A437843EA420343EA041301247B
S3150800A5F0427A8B60837A43EA42034B62054B5C607E
S3150800A600037813B1FFF7D2FFCC6010BD00400650A7
S3150800A6100060065000500650044B9A6AD006FCD4D7
S3150800A62019639A6AD206FCD4704700BF00400650E8
S3150800A630014B186B704700BF0040065008B5FFF77E
S3150800A640B5FF02230449CB6000230B62FFF7AEFF78
S3150800A6500123CB6008BD00BF00400650044BD3F869
S3150800A6608420D206FBD4D3F88400C0F38110704747
S3150800A6700040005038B5174B0546D3F828310C462C
S3150800A68003F00703013B052B20D8DFE803F003138B
S3150800A6901B0F0B172DF046FC052305B1286004B1E6
S3150800A6A0236038BD2DF03EFC0623F6E72DF07AFC34
S3150800A6B00723F2E72DF070FC0323EEE72DF06CFC80
S3150800A6C00423EAE72DF064FC0223E6E70023184694
S3150800A6D0E3E700BF00800050002337B50193164B0F
S3150800A6E00546D3F820320C4603F00703042B21D87D
S3150800A6F0DFE803F0030B11161B0001230DB1019AC5
S3150800A7002A6004B1236003B030BD002101A8FFF719
S3150800A710B1FF1123F2E72DF045FC07230190EDE781
S3150800A7202FF0C8FF0A230190E8E72DF083FC0923E0
S3150800A7300190E3E70023E1E70080005038B5104BAD
S3150800A7400546D3F850320C4603F00303022B12D009
S3150800A750032B08D0012B0AD00023184605B1286020
S3150800A76004B1236038BD2FF0A8FF0B23F6E72FF0BE
S3150800A770A1FF0A23F2E72DF05DFC0923EEE700BFEF
S3150800A7800080005038B5104B0546D3F800310C460A
S3150800A79003F00303022B0BD0032B0DD0012B0FD193
S3150800A7A02DF0FAFB032305B1286004B1236038BDF8
S3150800A7B02DF040FC0923F6E72FF07AFF0823F2E78D
S3150800A7C001230020EFE700BF0080005038B5184B82
S3150800A7D00546D3F820010C4600F00700062823D8C2
S3150800A7E0DFE800F0040A0E16121A1E00012305B14E
S3150800A7F0286004B1236038BD2DF094FB0523F6E7E5
S3150800A8002DF0CAFB0323F2E72DF0CCFB0723EEE776
S3150800A8102DF0BEFB0223EAE72DF084FB0623E6E7CC
S3150800A8202DF0BAFB0423E2E700231846DFE700BF52
S3150800A8300080005038B5104B0546D3F840310C4619
S3150800A84003F00303022B0BD0032B0DD0012B0FD1E2
S3150800A8502FF030FF0A2305B1286004B1236038BD04
S3150800A8602DF0E8FB0923F6E72FF027FF0B23F2E785
S3150800A87001230020EFE700BF00800050002337B512
S3150800A8800193164B0546D3F860320C4603F00703CE
S3150800A890013B032B1FD8DFE803F0020E1914002131
S3150800A8A001A8FFF793FF0F230DB1019A2A6004B19F
S3150800A8B0236003B030BD002101A8FFF7BBFF1023BA
S3150800A8C0F2E72DF06FFB07230190EDE72DF060FB13
S3150800A8D002230190E8E70023E6E700BF0080005066
S3150800A8E038B5104B0546D3F860310C4603F0030320
S3150800A8F0022B0BD0032B0DD0012B0FD12FF0DAFE34
S3150800A9000A2305B1286004B1236038BD2DF092FBF7
S3150800A9100923F6E72FF0D1FE0B23F2E701230020E7
S3150800A920EFE700BF0080005073B50D460021114BBC
S3150800A9300191D3F88041064604F00304022C13D093
S3150800A940032C0CD0012C13D101A8FFF73FFF0F24CD
S3150800A9500EB1019B336005B12C6002B070BD2DF0BD
S3150800A96021FB07240190F3E72DF012FB0190EFE796
S3150800A9700C46EDE70080005038B5104B0546D3F875
S3150800A98040320C4603F00303022B0BD0032B0DD0E9
S3150800A990012B0FD12FF08EFE0A2305B1286004B1D2
S3150800A9A0236038BD2DF046FB0923F6E72FF085FE18
S3150800A9B00B23F2E701230020EFE700BF00800050D9
S3150800A9C038B5144B0546D3F800020C4600F00700CC
S3150800A9D004281BD8DFE800F003090D111500012330
S3150800A9E005B1286004B1236038BD2FF063FE0A2341
S3150800A9F0F6E72DF01FFB0923F2E72FF05EFE0B2387
S3150800AA00EEE72DF0AFFA0E23800AE9E70023184691
S3150800AA10E6E700BF0080005038B5144B0546D3F86A
S3150800AA2008020C4600F0070004281BD8DFE800F0EF
S3150800AA3003090D111500012305B1286004B123602F
S3150800AA4038BD2FF037FE0A23F6E72DF0F3FA09236F
S3150800AA50F2E72FF032FE0B23EEE72DF083FA0E23F2
S3150800AA60800AE9E700231846E6E700BF00800050A1
S3150800AA70B0F5207F1FD009D8B0F5007F15D003D8D0
S3150800AA8068B1B0F5C07F0AD000200CE0B0F5607F51
S3150800AA90FAD10B4BD3F88000C0F3011003E0084B42
S3150800AAA0186FC0F3033001307047054BD3F8900098
S3150800AAB0C0F30460F7E7024B186FC0F38020F2E793
S3150800AAC00080005002464FF48030104B10B598664F
S3150800AAD00020FFF7CDFF504341F671320C4BDC697D
S3150800AAE0DA635A6804F4803422F4401259B90949E1
S3150800AAF0884294BF00200120000502435A600CB129
S3150800AB000022DA6310BD0449F2E700BF0090005046
S3150800AB1000000350005A6202002D3101430905D096
S3150800AB20012B0CD0022B084B18BF002300F01F0086
S3150800AB3039B103F58053012282401A607047034BEE
S3150800AB40F4E703F50053F6E7688000506480005088
S3150800AB501FB50021B0F5807F0446019100F0008101
S3150800AB606BD8002800F0DF80A0F12004602C74D890
S3150800AB70602C72D8DFE814F0D700DA00D700DA00C4
S3150800AB80EA00EA00EA00EA00EA00DA00EF007A00E2
S3150800AB909D0005017A00DA00DA00DA00710071001A
S3150800ABA0710071007100710071009D00DA00DA0011
S3150800ABB0DA002F010F01DA007100710071007100CF
S3150800ABC071007100710071007100710071007100EF
S3150800ABD01401EA00D700D700D7000A017A007A00E4
S3150800ABE01901BA008F00CE00CE0071007100710005
S3150800ABF071007100710071007100710071007100BF
S3150800AC0071007100710071007100710071007100AE
S3150800AC10710071007100710071007100710071009E
S3150800AC20710071007100710071007100710071008E
S3150800AC307100710071007100D300B0F5F06F00F07B
S3150800AC40CA803BD8B0F5607F7BD01AD8B0F5007FB4
S3150800AC5077D005D8B0F5C07F65D0019804B010BD8F
S3150800AC60B0F5207F62D0B0F5407FF6D12DF07AF9A5
S3150800AC7002464FF42070FFF7FBFEB2FBF0F25208D3
S3150800AC805DE0B0F5B06F66D00AD8B0F5806F5DD0DC
S3150800AC90B0F5A06FE1D1002101A8FFF71DFDDCE7A3
S3150800ACA0B0F5D06F6DD0B0F5E06F74D0B0F5C06F69
S3150800ACB0D3D1002101A8FFF7BDFDCEE7B0F5206F7F
S3150800ACC073D00CD8B0F5106F60D0B0F5186F67D098
S3150800ACD0B0F5086FC1D101A8FFF754FDBDE7B0F57F
S3150800ACE0306F67D010D8B0F5286FB6D100213C4B2D
S3150800ACF00391D3F8703203F00303012B02D103A8A2
S3150800AD00FFF798FD039B35E0B0F5386FD1D0B0F565
S3150800AD10406FA2D1002101A8FFF7ACFC9DE72DF0FA
S3150800AD2007F9019099E72DF01DF9FAE72DF01AF9C0
S3150800AD3002464FF42070FFF79BFEB2FBF0F2019239
S3150800AD408BE72DF0F5F802462046F4E7002101A826
S3150800AD50FFF73CFD81E7002101A8FFF7E5FD7CE749
S3150800AD604FF0E02302911B695B0705D52DF0FAF831
S3150800AD700290029B019370E703A902A8FFF75AFD08
S3150800AD80F7E7002101A8FFF71BFE66E7002101A8E7
S3150800AD90FFF742FE61E7002101A8FFF7EDFD5CE73A
S3150800ADA0002101A8FFF7CAFC57E7002101A8FFF711
S3150800ADB065FD52E70A4BD3F8903203F00303012BE3
S3150800ADC004D0022B05D12DF0EDF8AAE72DF0E0F816
S3150800ADD0A7E70846A5E7002101A8FFF781FD3CE79C
S3150800ADE00080005008B58020FFF7B2FE034B98425A
S3150800ADF09EBF4FF48032024B1A6708BD005A6202A2
S3150800AE0000A000501FB503460020B3F5807F0190CF
S3150800AE1000F0D18077D8582B68D8382B06D8243B31
S3150800AE20092B49D9019805B05DF804FB393B1F2B5E
S3150800AE30F8D801A252F823F0D9AF000825AE0008C9
S3150800AE4025AE000825AE0008E3AF0008FFAF0008EE
S3150800AE5025AE000825AE000825AE000825AE000878
S3150800AE6025AE000825AE000825AE000825AE000868
S3150800AE7025AE000825AE000825AE000825AE000858
S3150800AE8025AE000809B000082BAF000825AE00085B
S3150800AE9025AE000825AE00086FAF000825AE0008ED
S3150800AEA025AE000813B000081DB00008F5AF00086D
S3150800AEB091AF000891AF0008092BB3D801A252F848
S3150800AEC023F000BF2BAF00082BAF00082BAF0008FC
S3150800AED02BAF00082BAF000825AE0008ADAF000861
S3150800AEE025AE0008D9AF000849AF0008802B99D1D4
S3150800AEF05C4B1B6F03F00703013B032B92D8DFE87B
S3150800AF0003F0534C4F51B3F5086F6FD021D8B3F502
S3150800AF10C06F61D00ED8B3F5A06F6BD0B3F5B06F24
S3150800AF2044D0B3F5806F7FF47DAF002001A9FFF709
S3150800AF304DFC77E7B3F5E06F61D0B3F5F06F50D00D
S3150800AF40B3F5D06F7FF46EAF002001A9FFF738FD87
S3150800AF5068E7B3F5286F61D00ED8B3F5186F53D0EC
S3150800AF60B3F5206F55D0B3F5106F7FF45BAF0020B3
S3150800AF7001A9FFF751FD55E7B3F5306F60D0FFF42F
S3150800AF8051AFB3F5386F27D0B3F5406F7FF44AAFAA
S3150800AF90002001A9FFF76EFB44E70523019341E76B
S3150800AFA00323FBE70823F9E70223F7E7002001A9B3
S3150800AFB0FFF7BAFC36E74FF0E02302901B695B0700
S3150800AFC005D52CF0CFFF0C230393039BE6E703A9D3
S3150800AFD002A8FFF72FFCF8E7002001A9FFF72AFCD3
S3150800AFE020E7002001A9FFF77BFC1BE701A9FFF773
S3150800AFF0C9FB17E7002001A9FFF76EFB12E700203F
S3150800B00001A9FFF7B9FC0DE7002001A9FFF796FB98
S3150800B01008E7002001A9FFF731FC03E7114BD3F835
S3150800B020703203F00303012B04D0022B0CBF142348
S3150800B0300023B3E7002103A8FFF7FCFB1023ADE7C5
S3150800B040084BD3F8903203F00303012B06D0022BEA
S3150800B05002D12CF0A7FF07200190E3E62CF098FF19
S3150800B0600220F9E7008000504FF48012034B5A661D
S3150800B0704FF48032024B9A62704700BF009000502E
S3150800B0800050005AF8B504468020FFF7BBFE032897
S3150800B09000F08A804FF48012564B574D5A6645F693
S3150800B0A00E034FF0A062C5F88030544B9A624FF4F5
S3150800B0B0803203F580539A62AB6DDA03FCD4AE6D29
S3150800B0C016F08046FBD1D4E900231B0543EA026348
S3150800B0D0E27B4B481343227B4A4F43EA0243627B97
S3150800B0E043EA0233A27B43EA82132B61AA69D4E9B5
S3150800B0F004131B0643EA816302F000421343A27E4F
S3150800B1004FF440611343227E43EA0243627E43EAD8
S3150800B1100223AB614FF4006224F08AFB2B6AE17EBE
S3150800B120E26923F00F0343EA8103002A3DD12B622B
S3150800B13094F8243094F82010AA6ADB0043EA4113F5
S3150800B1403A40134394F821202F4943EA021343F463
S3150800B1508033294AAB62936D31EA0303FBD14FF082
S3150800B1608071264881621369A56823F4700343EA4F
S3150800B170055313614FF00043836194F822300BB9ED
S3150800B180224B996294F823303BB94FF480321F4B17
S3150800B1909A62194A936D5B00FCD494F825301BB16A
S3150800B1A0154B1B4AC3F88020F8BD134343F0080328
S3150800B1B0022A2B6208D12E614FF408524FF47F41C0
S3150800B1C01448AE6124F034FB0B4994F822308A6A9D
S3150800B1D094F820001B063A4043EA4013134394F8B8
S3150800B1E0242043EAC20394F8232043EA02438B62ED
S3150800B1F0D3E700BF009000500040005A0050005AA4
S3150800B2003840005AC7FFFEFE030001000060005ADE
S3150800B210F1A7FFFF3440005A014B93F9000070472D
S3150800B2200CB20020F0B5D0E901434FF400061A4AE3
S3150800B2304178057856664FF4D156022702F5B8329A
S3150800B2405662164E4F2977604FF0010728BF4F21E7
S3150800B25006F5805677601669F603FCD441EA05219F
S3150800B26051611B01417B43EA04230B43017B43EAFB
S3150800B27041039360C37B817B1B0143EA4113417CF5
S3150800B2800B43017C43EA41035360837C13B16FF49B
S3150800B290D1535362F0BD00BF009000500010025019
S3150800B2A0014B1880704700BF96B10020014B1880EB
S3150800B2B0704700BF94B10020B0F5207F10B50C464A
S3150800B2C042D008D8B0F5007F33D003D888B1B0F59E
S3150800B2D0C07F0ED010BDB0F5607FFBD11F4A4C1E53
S3150800B2E0D2F8803023F0300343EA0413C2F88030E2
S3150800B2F0F0E724F0ACFA24F0B8FA4FF48031184B92
S3150800B300164A1967136F013C23F4704343EA043362
S3150800B31013672CF027FE0446FFF7A0F9C0F10201D7
S3150800B320204624F09CFA00F035F8BDE81040FFF7F7
S3150800B33059BD0A4A4C1ED2F8903023F0F85343EA16
S3150800B3400463C2F89030C5E7044A4C1E136F23F411
S3150800B350806343EA84231367BCE700BF008000507C
S3150800B3600090005008B50121022000F0ABF84FF418
S3150800B3702070FFF77DFB054B187024F068FA24F05F
S3150800B38074FA4FF48032024B1A6708BDE195002023
S3150800B3900090005008B54FF4C070FFF7D9FBBDE820
S3150800B3A008400449884294BF012102214FF42070C5
S3150800B3B0FFF782BF80F0FA0238B504462CF0D2FDBA
S3150800B3C00546FFF74BF9C0F10201284624F047FA73
S3150800B3D00121002000F0B6F82CB1FFF7DBFFBDE82D
S3150800B3E03840FFF7FFBC034B4FF420701978FFF77E
S3150800B3F063FFF4E7E1950020024A536B0342FCD150
S3150800B400704700BF00400950044A4178536F23F43F
S3150800B410407343EA01235367704700BF004000505A
S3150800B4200E4A10B51369044643F0040313612DF060
S3150800B430EBF924F01FFA0A4B5B6E5B0142BF094B1E
S3150800B440094AC3F8202430BF24F015FA04F0F8FEA0
S3150800B4501CB9BDE810402CF085BD10BD00ED00E01C
S3150800B4600080005000E003500000FF0F0C4A10B5A2
S3150800B4701369044643F0040313610A4B5B6E5B01D0
S3150800B48042BF094B094AC3F820242DF0BDF930BF45
S3150800B49004F0D6FE1CB9BDE810402CF063BD10BD03
S3150800B4A000ED00E00080005000E003500000FF0FB0
S3150800B4B0034A0179D36E23F030030B43D3667047F2
S3150800B4C000400050F8B504461C4BD3F88420D1063A
S3150800B4D0FBD4D3F88430C3F381139C422CD02CF0D0
S3150800B4E027FD012C064602D1214624F0B8F92FF093
S3150800B4F0ECF84FF00072124B07465A66204624F0C5
